:04000000020089323F
:01000B0032C2
:0100130032BA
:01001B0032B2
:0100230032AA
:03002B000207C603
:01003300329A
:01003B003292
:01004300328A
:01004B003282
:01005300327A
:01005B003272
:01006300326A
:01006B003262
:01007300325A
:01007B003252
:0300830002085E12
:1A00E200E4F508F509F50AF50BF50EF50FF510F511F512F513F51402008674
:030086000201BFB5
:2000FC0075FFDE75FFAD22758400758804758910758E1875840075C80475C91075CADC7514
:20011C00CB0B75CCDC75CD0B75840275C80475C90275CA8D75CB342275840075C04175CFF2
:20013C00E922758400759A4075F801759D7C2275840075BCFA75E8802275840075D49C220F
:20015C0075840075D1032275840F75A50175A60175A78075E10175E3402275840F758C67C3
:20017C007EB87F0BEE24FFFCEF34FFFD8C068D07EC4D70F0E58C30E7FB7597012275A8A049
:20019C0075E704221200FC12010312013412013E12014B12015512015C12016312017612BF
:2001BC000199221201A075840012058CC20112049ED20112049EC20775820012061AD2074F
:2001DC0075820012061A53C0BF43C04075A880E4C0E07582A01206B6AE82AF8315818E0EAB
:2001FC0075A8A0751C0275820012034F85820C85830D850D83120EB5AC82AD83AEF0FFC06B
:20021C0004C005C006C00790FFFF75F072743D120CE8AC82AD83AEF0FFE58124FCF581E475
:20023C00C0E0C0E07480C0E003C0E08C828D838EF0EF120F1085820F85831085F011F512B4
:20025C00E58124FCF5817480C0E0E4C0E0C00FC010C011C0127423C0E07412C0E01208674E
:20027C00E58124F8F58175A820E4C0E07582A01206B6AE8215818E0EAE0E7F007480C0E013
:20029C00E4C0E0C006C0077437C0E07412C0E0120867E58124FAF58175A8A0850E82120F52
:2002BC00EFAC82AD83AEF0FFC004C005C006C007850F828510838511F0E512120E2FAF82F7
:2002DC00E58124FCF581EF601620B702D2B7744BC0E07412C0E012086715811581804AAE95
:2002FC000E7F008E828F83A3A3120EA8AC82AD83AEF0FFC004C005C006C007850F82851069
:20031C00838511F0E512120E2FE58124FCF581E58224FF9200401210B700745BC0E074124C
:20033C00C0E0120867158115819001F41203700201FF22AF8253BCF8E51C42BC8FBBD2ECE7
:20035C0020ECFDAFBF7E00ACBE7D00EC4EF582ED4FF58322AE82AF834389015389FDEE4FD9
:20037C006016C28CC28D758C9E758A58D28C308DFD1EBEFF011F80E622E58224E075F005E8
:20039C00A4243EFE741035F0FF7C007D00C3E50A9409E50B648094805026EC2EF582ED3F32
:2003BC00F583E493FBD202C2038B82C007C006C005C0041204FED004D005D006D00780246D
:2003DC00EC2EF582ED3FF583E493FBD202D2038B82C007C006C005C0041204FED004D005D1
:2003FC00D006D0070CBC00010DC3EC9405ED6480948040997E007F00C3E50A9409E50B64B8
:20041C008094805014D202C203758200C007C0061204FED006D0078012D202D203758200B8
:20043C00C007C0061204FED006D0070EBE00010FC3EE9403EF6480948040BD22AF82BF0137
:20045C00004031EF24F7402CE4F50AF50BEF14FEC2078E82C00612061AD006D2078E821213
:20047C00061AC206758200120606D206758200120606800D050AE4B50A02050B8F821203FF
:20049C0095227E007F008E82A2019207C007C00612061AA2019206758200120606D006D08B
:2004BC00077C007D00D202A2019203758200C007C006C005C0041204FED004D005D006D0A4
:2004DC00070CBC00010DC3EC9440ED6480948040D40EBE00010FC3EE9408EF648094804057
:2004FC00A522AF82C204A2039205C007120553E582D00720E7EEC2A3A20392A0A203B3925C
:20051C00A1A20292A275840F8FC875840000000000D2A4000000000000000000000000C2B6
:20053C00A475840F75C8FF75840000000000000000000000000022D2A3A20592A0A205B3F4
:20055C0092A1A20492A200000000D2A4000000000000000075840F85C8827584000000002C
:20057C0000C2A400000000000000000000000022C2A4D2A5D2A0D2A175840F75C8FF7584D8
:20059C0000C204C205120553E58220E4F4C204D205120553E58220E4F4C202C20375823FC4
:2005BC001204FEC202D20375823F1204FEC202C2037582B81204FEC202D2037582B812047E
:2005DC00FEC202C2037582401204FEC202D2037582401204FEC202C2037582C01204FEC233
:2005FC0002D2037582C01204FE22AF8253073F74402FF582C202A20692031204FE22AF828F
:20061C0053070774B82FF582C202A20792031204FE22C01B85811BAF82C2088F82C0071272
:20063C00074AAE82D007EE600F8E047D00C3E49CF582E49DF583805FE51B24FDF88682C067
:20065C0007120797AD82D0078D06EE600F8E047D00C3E49CF582E49DF583803BE51B24FC34
:20067C00F88682C007120797AD82D0078D06EE600D7D00C3E49EF582E49DF5838019D2C492
:20069C00C2C320C4FDC2088F82C00712074AE582D00770F1900000D01B22C01B85811BAFEC
:2006BC0082C2088F82C00712074AAE82D007EE600F8E047D00C3E49CF582E49DF583806B86
:2006DC00E51B24FDF88682C007120797AD82D0078D06EE600F8E047D00C3E49CF582E49D26
:2006FC00F5838047D2088F8212074AAF828F06EE600D7F00C3E49EF582E49FF583802CC28C
:20071C00C2C2C330C3FD7458B5C102800FAEC17F00C3E49EF582E49FF583800FAEC27F0090
:20073C00D2C4C2C320C4FD8E828F83D01B22AF82D2C5C2C330C3FD7408B5C102800C741031
:20075C00B5C102800585C18280305307FEA208E433FE4FF5C2C2C5C2C330C3FD20080C7447
:20077C0018B5C102801185C182800F7440B5C102800585C1828003758200228582C2C2C580
:20079C00C2C330C3FD7428B5C10375820022E580F4FF60127E00BF01028007EFC313FF0E37
:2007BC0080F48E82800375823222C022C0E0C0F0C082C083C007C006C005C004C003C00279
:2007DC00C001C000C0D075D00074FFB5800C74FFB59007E4F508F5098049E508450970439E
:2007FC00750801F5091207AAAF82BF061974C9250E4013050EC00EE4C0E07582A012062E8A
:20081C0015811581801D1207AAAF82BF0715E50E6011150EC00EE4C0E07582A012062E1559
:20083C00811581C2CFD0D0D000D001D002D003D004D005D006D007D083D082D0F0D0E0D0D3
:0B085C00223253C0BF43C040C2CF3265
:20103E00000000000000005F00000007000700147F147F14242A7F2A12231308646236495F
:20105E005522500005030000001C2241000041221C00082A1C2A0808083E08080050300047
:20107E00000808080808003030000020100804023E5149453E00427F40004261514946218C
:20109E0041454B311814127F1027454545393C4A494930017109050336494949360649498A
:2010BE00291E0036360000005636000000081422411414141414412214080002015109060E
:2010DE00324979413E7E1111117E7F494949363E414141227F4141221C7F494949417F093B
:2010FE000901013E414151327F0808087F00417F41002040413F017F081422417F4040404F
:20111E00407F0204027F7F0408107F3E4141413E7F090909063E4151215E7F0919294646CD
:20113E004949493101017F01013F4040403F1F2040201F7F2018207F63140814630304783B
:20115E000403615149454300007F4141020408102041417F0000040201020440404040405A
:20117E00000102040020545454787F484444383844444420384444487F3854545418087EB2
:20119E00090102081454543C7F0804047800447D40002040443D00007F10284400417F4041
:2011BE00007C041804787C0804047838444444387C14141408081414187C7C08040408485D
:2011DE0054545420043F4440203C4040207C1C2040201C3C4030403C44281028440C505022
:2011FE00503C4464544C44000836410000007F0000004136080008082A1C08081C2A080880
:20121E00000303000002205420417475616C3A2025322E3166256343000320542052656628
:20123E0065723A202532642E30256343000620417175656365646F72204F4E200006204178
:0D125E007175656365646F72204F46460030
:20086700C01B85811BE51B24FDF8868318868218E493A3B42577C209C20AC20BC20CC20DB0
:20088700C20E79157700C20FE493A324C64017240A50157005B51502D20ED20DFAE775F077
:2008A7000AA42AF780E2240A2430B46C04D20980D7B46804D20A80D0B473030208FFB46491
:2008C70006120BD902095BB47506120BD902097BB4630518E6188017B4780302093AB466AD
:2008E70003020A8FB42E0679167700809B6006120CCB020877020CE5C083C08286F01886EE
:200907008318868218300D19C20EC082C083120FD36007A31515E51570F4120CB6D083D0ED
:2009270082120FD36006A3120CCB80F5D082D083020877120952200A0C120952300906124C
:200947000952120952120CDD020877E6120CBBE618020CBCED30E71CD20CE9F42401F920AC
:200967000A12EAF43400FA30090AEBF43400FBECF43400FC200A10300908EB7024EC702170
:20098700C209EA701CD20AE97017200F14300D09E51560051515120CB67430120CCB020846
:2009A70077C082C083120BF3300D60790A30091DEB54F0703619EB540F703019EA54F0701B
:2009C7002A19EA540F702419EF54F0701E7905200A0BEF540F701419EE54F0700E7903EE56
:2009E700540F700719ED54F0700119E515A20C994019F515C003C002C007C006C005120CA9
:200A0700B6D005D006D007D002D003300C19C003C002C007C006C005742D120CCBD005D097
:200A270006D007D002D003200A4030092CC005C006C0078A82EBF583120CBBE583120CBC82
:200A4700E582120CBBE582120CBCD0E0F582120CBBE582D083D08280058D828E83EF120C50
:200A6700BCE583120CBBE58380038D82EE120CBCE582120CBBE582120CBC120CDDD083D011
:200A870082300F0122020877300D0EE515D39516F51550287515008023E6547FFA18860324
:200AA70008AE82AF839014377D07E4932BA3E4933A5003A3DDF48D168E828F83C000120B07
:200AC700BBC082C083EFB47E02801940112482FDC3EA33FAEB33FBEC33FCDDF48006F424A2
:200AE7007F120DB975F01BE4F8FFFEFD9013CBE933F9EA33FAEB33FBEC33FC5017E4932D69
:200B0700D4FD7401933ED4FE7402933FD4FF74039338D4F8A3A3A3A3D5F0D4E47C50FBFAF2
:200B2700F9E516232354FC8883120DB9ED29D4F51AEE3AD4F519EF3BD4F518E5833CD4F5C6
:200B47001792D5D083D082D000120BBBC000C3749E9F5005D00002088FC082120DB9D08265
:200B670030D50FE92401F9E43AFAE43BFBE43CFC40E2D20F12097B200D0CE5166008120BB3
:200B8700AB7003D516F4E5166015742E120CCB7800D20B08E8120BAB120CBCE8B516F4D0F8
:200BA7000002087714C31392D52417F9E720D501C4540F22E618F9E618FC33E933920CFF25
:200BC7006003430480E618FBE618FA7900C20AD20922E6F9FD18200A12AA01E6F9183009A6
:200BE7000AAC02AB01E6FA18E6F91822E975F06484FE740AC5F084C445F0FD300A0122EA51
:200C0700540FF990126B932DD4FDE94410933ED4FEEAC4540FF990128B932DD4FDE94410EE
:200C2700933ED4FEE94420933400D4FF20090122EB540FF99012BB932DD4FDE94410933E94
:200C4700D4FEE94420933FD4FFE43400FAEBC4540FF99012EB932DD4FDE94410933ED4FEAE
:200C6700E94420933FD4FFE94430933AD4FAEC540FF990132B7B00120C89ECC4540FF990AF
:200C8700137B932DD4FDE94410933ED4FEE94420933FD4FFE94430933AD4FAE94440933B29
:200CA700D4FB227420300E027430120CCB1515E51570F022C4540F7003300B19D20B2490B6
:200CC700D43440D4C083C082C000F582120458D000D082D08322200BFC7430020CCBD01BA1
:010CE70022EA
:20126B0000561268248036924804601672288440000205071012151720232528303335384B
:20128B000096928884807672686460565248444000408122630445862768095091327314C0
:2012AB0000000001010202020303040404050506003672084480165288246096326804409D
:2012CB000055106621763287429853086419753000061319263239455258657278859198E2
:2012EB00007652280480563208846036128864400085715743281400867157432914008667
:20130B000004091419242934384348535863687200010203040506070809101112131415C0
:20132B000016324864809612284460769208244000724416886032057749219365381082B8
:20134B000077553310886644219977543210886500163350678300173450678401183451E6
:20136B000000000000000101010101010202020200561268248036924804601672288440F8
:20138B00005409631872278136914500540963180043873074176104489135792266095317
:2013AB00006836057342107947158452218958260002050810131618212426293234374016
:2013CB000000005000000025000050120000250600501203002556015012780025063900E1
:2013EB00125319005676090028880400144402000722010004610000523000002615000035
:20140B00630700008103000091010000950000004800000024000000120000000600000028
:1A142B000300000001000000010000007DC5DDC334C2E0BE38BD86BBE4B959
:200CE800120D8BBC0003020EE2EF60FA30D502B2D1E583B4FF03020EF8E582B4FF03020E6B
:200D0800F8258340072482400B020EE22483145003020EF8F582EA8DF0A4A8F0EA8EF0A4C5
:200D280028F8E435F0F9EB8DF0A428E935F0F9E433CA8FF0A429F9EA35F0FAEBF88EF0A41A
:200D480029F9EA35F0FAE433FBEC8DF0A429F9EA35F0FAE43BFBE88FF0A42AFAEB35F0FBC2
:200D6800E433CCFD8EF0A42AFAEB35F0FBE43CFCED8FF0A42BFBEC35F0FC20E703120DFCB6
:030D8800020EC197
:200D8B00AA82AB83A2F73392D1F5826002D2F7ACF0E58124F9F8E6FD08E6FE0886F008E6CB
:0E0DAB00A2F73392D5F5836002D2F7AFF022A3
:0600B800E478FFF6D8FD1C
:200DB9006040F82582500274FFF582E824F8501ECCCBCAF9E4CC24F85014CBCAF9E4CB2442
:200DD900F8500BCAF9E4CA24F8500379002224086010F8C3EC13FCEB13FBEA13FAE913F9F5
:030DF900D8F1220C
:200DFC007804EC7011E58224F8500AF582E4C9CACBFCD8EF22EC7820058220E713D58201F6
:130E1C0022C3E933F9EA33FAEB33FBEC33FCD8EA15822203
:200096007900E94400601B7A00901445780175A200E493F2A308B8000205A2D9F4DAF275B3
:0200B600A2FFA7
:200E2F00FFA8811818120E7DD2D133E6400730E70B7582002220E70675820122C2D1120E96
:100E4F005FE97003F5822220D101B3E433F58222EA
:2000BE007800E84400600A790175A200E4F309D8FC7800E84400600C7900900001E4F0A33E
:0400DE00D8FCD9FA77
:200E5F007901AA82E68F82B5821318E6B5F00E18E6B5830918E68A82B58202790022B4808A
:200E7F000FE5F0700AE5837006E58270027F00EFB6801518B6001018B6000B18B6000608F2
:090E9F0008087600220808082268
:0D0EA800AC83AB827A007900748E021003D7
:0C0EB500E4AC83AB82FAF9748E021030BA
:200EC100B98003EA13B34010EA2401FAE43BFBE43CFC50047C800582BC000EBB000BBA0075
:200EE10008E4F5F0F583F58222A2D1E582138CF092F78B838A8222E4F583F58275F080F435
:0F0F0100A2D11322E4F583F58275F0C0747F222C
:200F1000120D8B30D502B2D1BF0009BC0003020F05020EF8BC0003020EE2E583B4FF0BE52C
:200F300082B4FF03020F05020EE2E582B4FF03020EF8C395835007247F400B020EE2248086
:200F5000145003020EF8F582C3ED9AEE9BEF9C40111582C3EA33F9EB33FAEC33FBE433FC37
:200F70008005E4CCCBCAF9C08275F019C3E99DEA9EEB9FEC9400D5F002802D400EE99DF9C2
:200F9000EA9EFAEB9FFBEC9400FCC3B3E833F8E58233F582E58333F583C3E933F9EA33FA22
:200FB000EB33FBEC33FC80C4B3E4F938FAE43582FBE43583FCD082500405827C80120DFC75
:030FD000020ED935
:0D00890075812212103AE5826003020086A4
:1C0FD30020F71430F6148883A88220F507E6A88375830022E280F7E49322E0222D
:0B0FEF00E4AC82FBFAF97486021030BB
:200FFA00FCABF0AA83A982749EF582C2D1EC30E716D2D1E9F42401F9EAF43400FAEBF434F6
:0D101A0000FBECF43400FC120DFC020EC1D2
:13102700FCABF0AA83A982749EC2D1F582120DFC020EC1BF
:04103A007582002299
:00000001FF
